S0160000353131304C43445F6472697665722E7372656389
S11300000C9472000C9487000C9487000C94870065
S11300100C9487000C9487000C9487000C94870040
S11300200C9487000C9487000C9487000C94870030
S11300300C9487000C9487000C9487000C94870020
S11300400C9487000C9487000C9487000C94870010
S11300500C9487003F01580171018A01A201A20199
S1130060A201A201A201A201A201A201A201A20174
S1130070A201A201A201A201A201A201A201A20164
S1130080A201A201A201A201A201A201A201A20154
S1130090A201A2013F01580171018A01AF01C80107
S11300A0E101FA01120212021202120212021202F7
S11300B0120212021202120212021202120212029C
S11300C0120212021202120212021202120212028C
S11300D0120212021202120212021202AF01C8012B
S11300E0E101FA0111241FBECFE5D8E0DEBFCDBF88
S11300F012E0A0E6B0E0EAE9F4E002C005900D9257
S1130100A035B107D9F70E9413020C944B020C944A
S11301100000CF93C82F611106C040E061E082E483
S11301200E94A30105C041E061E082E40E94A301B2
S113013040E064E082E40E94A3018C2F0E9441020B
S113014041E064E082E40E94A301CF91089541E07C
S113015064E082E40E94330141E060E082E40E94B2
S1130160330141E061E082E40E94330140E060E059
S113017082E40E94A3012FEF80E792E021508040A7
S11301809040E1F700C0000041E060E082E40E949A
S1130190A3010E94290260E081E20E94890060E0DC
S11301A081EB0E94890060E084E00E94890060E0A5
S11301B084E10E94890060E080E20E94890060E09E
S11301C08CE00E94890060E08FEB0E948900089512
S11301D0CF93C62F60E080680E94890060E08C2F76
S11301E080640E948900CF910895CF93DF93C8EF74
S11301F0D1E061E080E00E9489002197D1F760E0BE
S113020080E00E94E800DF91CF9108951F93CF937F
S1130210DF9390E0EC01CC0FDD1FCC0FDD1F8C0FC2
S11302209D1FEC01C054D04010E061E089910E9410
S113023089001F5F1530C9F761E080E00E948900E2
S1130240DF91CF911F910895CF93DF93EC018881C3
S1130250882331F021960E94060189918111FBCFF8
S1130260DF91CF91089590E0FC01E154F109E4326B
S1130270F10508F067C0E65DFF4F0C94450241307C
S113028059F42AB381E090E002C0880F991F6A955F
S1130290E2F7822B8ABB08952AB381E090E002C082
S11302A0880F991F6A95E2F7809582238ABB089587
S11302B0413059F427B381E090E002C0880F991FC0
S11302C06A95E2F7822B87BB089527B381E090E01B
S11302D002C0880F991F6A95E2F78095822387BB35
S11302E00895413059F424B381E090E002C0880FAE
S11302F0991F6A95E2F7822B84BB089524B381E0A9
S113030090E002C0880F991F6A95E2F780958223D6
S113031084BB0895413059F421B381E090E002C0D8
S1130320880F991F6A95E2F7822B81BB089521B348
S113033081E090E002C0880F991F6A95E2F78095EA
S1130340822381BB089590E0FC01E154F109E43279
S1130350F10508F067C0E25BFF4F0C9445024130A1
S113036059F42BB381E090E002C0880F991F6A957D
S1130370E2F7822B8BBB08952BB381E090E002C09F
S1130380880F991F6A95E2F7809582238BBB0895A5
S1130390413059F428B381E090E002C0880F991FDE
S11303A06A95E2F7822B88BB089528B381E090E038
S11303B002C0880F991F6A95E2F78095822388BB53
S11303C00895413059F425B381E090E002C0880FCC
S11303D0991F6A95E2F7822B85BB089525B381E0C6
S11303E090E002C0880F991F6A95E2F780958223F6
S11303F085BB0895413059F422B381E090E002C0F6
S1130400880F991F6A95E2F7822B82BB089522B365
S113041081E090E002C0880F991F6A95E2F7809509
S1130420822382BB08950E94A7002FEF89E698E1FA
S1130430215080409040E1F700C000000E94F50088
S113044060E080E00E94E80080E492E00E942401E1
S1130450FFCF41E064E082E40E94330141E065E0C3
S113046082E40E94330141E067E082E40E943301A8
S11304706C9A689A6E9A41E064E082E40E94A30157
S113048008958FB9779BFECF0895EE0FFF1F059057
S10D0490F491E02D0994F894FFCFD5
S113049A000000000000005F0000000700070014CD
S11304AA7F147F14242A7F2A12231308646236498C
S11304BA5522500005030000001C2241000041227D
S11304CA1C0014083E081408083E080800503000AE
S11304DA00080808080800606000002010080402E8
S11304EA3E5149453E00427F4000426151494621FE
S11304FA41454B311814127F1027454545393C4A6A
S113050A49493001710905033649494936064949B9
S113051A291E00363600000056360000081422410F
S113052A0014141414140041221408020151090677
S113053A324979413E7E1111117E7F494949363E3D
S113054A414141227F4141221C7F494949417F0956
S113055A0909013E4149497A7F0808087F00417F19
S113056A41002040413F017F081422417F4040401E
S113057A407F020C027F7F0408107F3E4141413EC6
S113058A7F090909063E4151215E7F091929464618
S113059A4949493101017F01013F4040403F1F2041
S11305AA40201F3F4038403F631408146307087013
S11305BA08076151494543007F414100020408107C
S11305CA200041417F0004020102044040404040AF
S11305DA000102040020545454787F4844443838B3
S11305EA44444420384444487F3854545418087EB8
S11305FA0901020C5252523E7F0804047800447DD9
S113060A40002040443D007F1028440000417F40C0
S113061A007C041804787C08040478384444443878
S113062A7C14141408081414187C7C08040408485C
S113063A54545420043F4440203C4040207C1C2015
S113064A40201C3C4030403C44281028440C505064
S113065A503C4464544C44000836410000007F0076
S113066A00004136080010080810080000000000C5
S113067A48656C6C6F2C2035313130203A290000E2
S9030000FC
